:020000022000DC
:1060000000000120B5620200DD620200E5890200A5
:10601000E1620200E3620200E562020000000000AB
:10602000000000000000000000000000E762020025
:10603000E962020000000000EB620200ED62020073
:1060400071A10200EF620200C9A6020051A702007E
:10605000EDA80200EF620200DDA102004DA90200DE
:10606000EF620200EF620200EF620200EF620200E4
:10607000EF620200EF620200EF620200EF620200D4
:10608000EF62020071770200EF620200EF6202002D
:10609000EF620200EF620200E1E80200EF6202003C
:1060A000EF620200EF620200EF620200EF620200A4
:1060B000EF620200EF62020000000000000000003A
:1060C000EF620200EF620200EF620200EF62020084
:1060D000EF620200EF620200EF62020000000000C7
:1060E00000000000000000000000000000000000B0
:1060F00000000000000000000000000000000000A0
:10610000000000000000000000000000000000008F
:10611000000000000000000000000000000000007F
:10612000000000000000000000000000000000006F
:10613000000000000000000000000000000000005F
:10614000000000000000000000000000000000004F
:10615000000000000000000000000000000000003F
:10616000000000000000000000000000000000002F
:10617000000000000000000000000000000000001F
:10618000000000000000000000000000000000000F
:1061900000000000000000000000000000000000FF
:1061A00000000000000000000000000000000000EF
:1061B00000000000000000000000000000000000DF
:1061C00000000000000000000000000000000000CF
:1061D00000000000000000000000000000000000BF
:1061E00000000000000000000000000000000000AF
:1061F000000000000000000000000000000000009F
:1062000010B5054C237833B9044B13B10448AFF3F0
:1062100000800123237010BD083200200000000020
:106220005838030008B5034B1BB103490348AFF3CB
:10623000008008BD000000000C3200205838030028
:10624000154B002B08BF134B9D46A3F5803A002148
:106250008B460F461348144A121A09F01FF80F4BC9
:10626000002B00D098470E4B002B00D09847002001
:10627000002104000D000D48002802D00C48AFF3A7
:10628000008008F0CBFF2000290008F0A3FB08F0F5
:10629000B1FF00BF00000800000001200000000066
:1062A0000000000008320020A83C00200000000090
:1062B000000000000649074A074B9B1A03DD043B18
:1062C000C858D050FBDC03F0C5FCFFF7B9FF000055
:1062D000E83903000030002008320020FEE7FEE726
:1062E000FEE7FEE7FEE7FEE7FEE7FEE7FEE7FEE786
:1062F000704700BF00B583B0044B0093044A4023AD
:1063000000F034F803B05DF804FB00BF1563020031
:106310002832002002B32DE9F843114B114E884674
:10632000144643F0010903270025224608EB050126
:10633000002004F059FC03461D444FF47A40E41A4F
:1063400023B9337833B1C847013F06D001233370F6
:10635000002CEAD1BDE8F88370473770BDE8F883B8
:106360000017030024320020704700BFF0B595B03D
:1063700000241D460E460846174603F095FB30469E
:1063800023460822099505A91A9D08970D950A9498
:106390008DF82C400C9403F0EBFB9DF814308DF835
:1063A0001140DDE9061003F00302012ACDE90201E4
:1063B00028D0022A04D0304603F07AFB15B0F0BD95
:1063C000BDF81650C3F3C2038DF81030C5F389151C
:1063D0000827082D2C4628BF08243B4622460EA934
:1063E000304603F0C5FB2D1B214608AB02AA0EA8C0
:1063F000274400F0C9FF002DEBD1304603F058FBD5
:1064000015B0F0BDBDF81470059DC7F38312C3F33A
:10641000C2040EA93046920008238DF81040C7F33D
:10642000831703F0A5FBC5F3952508AB3A4628462C
:106430000EA9009302AB00F02FFF304603F038FBAB
:1064400015B0F0BD99B10E4B0E495B1ADB0815D0A3
:1064500030B400220C4D02E0013293420BD035F8EB
:1064600022408442F8D151F8320030BC70470549CF
:1064700051F830007047002030BC70471846704714
:10648000D0390300C838030008320020094B013915
:1064900003EBC00003290BD8DFE801F00402080673
:1064A0000420704702207047407970470079704798
:1064B00000207047C83803002DE9F047954CD4E917
:1064C00000239A4284B063D00023C4F81834BFF389
:1064D0004F8FD4E9013503EA0501CA1C04EB82069B
:1064E00014F82220500719D52768327802F00302E9
:1064F000012A43D0022A03D17288023303EB92139C
:1065000005EA0301D4F81804CA1C04EB820628B972
:106510009F4239D914F822205207E6D404EB8101B6
:106520005A1CC96801912A4004EB820201F0030160
:10653000D2680292022903F102062DD0012900F04F
:106540009580D4F810543DB12B6828469B68984735
:10655000EB681D68002DF7D16F48704B7049C01A69
:10656000C008000440F0020000F0E0F8D4E9003078
:10657000C01A18BF012004B0BDE8F087328802338A
:10658000C2F383121344BBE7676004B0BDE8F08731
:10659000002004B0BDE8F087BDF806306148C3F3C1
:1065A0008919B9F1500FC84628BF4FF0500868F359
:1065B0008F1308F10801ADF8063003F02BFA0746F7
:1065C0000028BED003F070FA0023082201A9384643
:1065D00003F09AFA25EA06030133B8EB830F4FEA7A
:1065E000830A7DD9BAF1000F00F08D8005EA06011B
:1065F0000331A8EB0A0804EB810108235246384610
:106600005FFA88F803F080FA474942460AF1080326
:10661000384603F079FA09F1030906EB9906D4F834
:106620001834002B6BD1D4F8105465B1EB685A794B
:1066300028463946002A5ED02B681B689847EB68CD
:106640001D68002DF2D1384603F032FA00230DF117
:1066500003008DF8033001F039F8D4F8183403B989
:1066600066609DF8030001F057F87FE7BDF804303D
:106670002C48C3F38312062A28BF0622911C62F31A
:1066800089138900ADF8043003F0C4F907460028E7
:106690003FF457AF03F008FA0023082201A9384657
:1066A00003F032FABDF8043013F4707FB7D04FF026
:1066B0000008314629404FEA88030331083304EBD0
:1066C00081010422384603F01FFABDF8043008F1B6
:1066D0000108C3F38313434506F10106E9D89EE799
:1066E00005EA0601033104EB8101424608233846DE
:1066F00003F00AFA8FE71D68002D97D1A3E738460B
:1067000003F0D6F932E7084942460823384603F039
:10671000FBF980E73833002008390300C83803004C
:1067200024170300B4380300443300202DE9F04F50
:10673000644C87B0002306460DF10B008DF80B303A
:10674000A568019100F0C2FFD4E9012327681A442B
:106750000132D21B012A00F2858004F21C4804F5A4
:10676000836A04F214491BE0BDF80E30C3F38913A9
:106770000333090C0BEB930B4846009102F0B2FA7D
:10678000009900283ED04046C4F804B002F07EFADA
:10679000D4E90113226819440131891A012962D808
:1067A0000121404602F072FA504602F08BFA484648
:1067B00002F088FAD4E9013C03EA0C02D11C04EB94
:1067C000810014F821E01EF0040F0EF0040129D11D
:1067D00004EB8202591CD268039201EA0C0104EB1B
:1067E000810102F00302012AC96803F1020B32D0D1
:1067F000022AB9D000214846009102F073FA0099AC
:106800000028C0D14046C1E743880BEB93130CEA44
:106810000302D11C04EB810014F8211001F00401E3
:106820000029D5D090F800E00EF0030EBEF1010F64
:106830000BD0BEF1020F03F1020B02F1030EE3D005
:1068400004EB8E000029EDD1C2E702880233C2F3C7
:1068500083121344DBE7BDF80C30C3F38313090C38
:106860009B4489E73A4613400333023205219DF8E1
:106870000B0044F82310226000F04EFF0021124864
:1068800002F0BEF980F31000F1007B1C2B40019A4E
:1068900001F038013D4004EB830341F001010004A5
:1068A000033540EA164641EA8221DE6044F82510AD
:1068B00094F820341BB1FFF7FFFD0028FBD107B08F
:1068C000BDE8F08F38330020543700202DE9F04F19
:1068D000684C89B0002307460DF11300CDE9021280
:1068E0008DF81330A56800F0F1FED4E90123266885
:1068F0001A440132921B022A00F2858004F21C48DD
:1069000004F5836A04F214491BE0BDF81630C3F3A2
:1069100089130333090C0BEB930B4846019102F0EA
:10692000E1F9019900283ED04046C4F804B002F0D5
:10693000ADF9D4E90113226819440131891A0229F9
:1069400062D80121404602F0A1F9504602F0BAF99E
:10695000484602F0B7F9D4E9013C03EA0C02D11C25
:1069600004EB810014F821E01EF0040F0EF0040186
:1069700029D104EB8202591CD268059201EA0C016C
:1069800004EB810102F00302012AC96803F1020B42
:1069900032D0022AB9D000214846019102F0A2F972
:1069A00001990028C0D14046C1E743880BEB9313FF
:1069B0000CEA0302D11C04EB810014F8211001F051
:1069C00004010029D5D090F800E00EF0030EBEF1CE
:1069D000010F0BD0BEF1020F03F1020B02F1030E07
:1069E000E3D004EB8E000029EDD1C2E70288023328
:1069F000C2F383121344DBE7BDF81430C3F38313EF
:106A0000090C9B4489E73246134003330332452186
:106A10009DF8130044F82310226000F07DFEB31CA3
:106A20002B4004EB8303039A1348DA60002102F041
:106A3000E7F880F31000F900731C2B40029A01F074
:106A40003801354004EB830341F041010004033574
:106A500040EA174741EA8221DF6044F8251094F8A4
:106A600020341BB1FFF728FD0028FBD109B0BDE899
:106A7000F08F00BF38330020543700202DE9F04F4D
:106A80006C4C89B0002607460DF11300CDE90112C8
:106A900003938DF81360A56800F018FED4E9012374
:106AA00026681A440132921B032A00F2858004F200
:106AB0001C4804F5836A04F214491BE0BDF8163043
:106AC000C3F389130333090C0BEB930B4846009176
:106AD00002F008F9009900283ED04046C4F804B0FE
:106AE00002F0D4F8D4E90113226819440131891A5B
:106AF000032962D80121404602F0C8F8504602F04E
:106B0000E1F8484602F0DEF8D4E9013C03EA0C0261
:106B1000D11C04EB810014F821E01EF0040F0EF0EC
:106B2000040129D104EB8202591CD268059201EAC2
:106B30000C0104EB810102F00302012AC96803F190
:106B4000020B32D0022AB9D000214846009102F04F
:106B5000C9F800990028C0D14046C1E743880BEB33
:106B600093130CEA0302D11C04EB810014F82110EA
:106B700001F004010029D5D090F800E00EF0030EDA
:106B8000BEF1010F0BD0BEF1020F03F1020B02F1B7
:106B9000030EE3D004EB8E000029EDD1C2E702889A
:106BA0000233C2F383121344DBE7BDF81430C3F39E
:106BB0008313090C9B4489E73246134003330432A4
:106BC00085219DF8130044F82310226000F0A4FDF5
:106BD000B21C2A40F31C2B4004EB820204EB830C12
:106BE000029BD3600021039B1348CCF80C3002F0C9
:106BF00007F880F31000F900731C2B40019A01F094
:106C00003801354004EB830341F081010004033572
:106C100040EA174741EA8221DF6044F8251094F8E2
:106C200020341BB1FFF748FC0028FBD109B0BDE8B8
:106C3000F08F00BF38330020543700202DE9F04F8B
:106C40006F4C89B0002607460DF11300CDE9011203
:106C500003938DF81360A56800F038FDD4E9012393
:106C600026681A440132921B042A00F2858004F23D
:106C70001C4804F5836A04F214491BE0BDF8163081
:106C8000C3F389130333090C0BEB930B48460091B4
:106C900002F028F8009900283ED04046C4F804B01D
:106CA00001F0F4FFD4E90113226819440131891A73
:106CB000042962D80121404601F0E8FF504602F065
:106CC00001F8484601F0FEFFD4E9013C03EA0C025A
:106CD000D11C04EB810014F821E01EF0040F0EF02B
:106CE000040129D104EB8202591CD268059201EA01
:106CF0000C0104EB810102F00302012AC96803F1CF
:106D0000020B32D0022AB9D000214846009101F08E
:106D1000E9FF00990028C0D14046C1E743880BEB4A
:106D200093130CEA0302D11C04EB810014F8211028
:106D300001F004010029D5D090F800E00EF0030E18
:106D4000BEF1010F0BD0BEF1020F03F1020B02F1F5
:106D5000030EE3D004EB8E000029EDD1C2E70288D8
:106D60000233C2F383121344DBE7BDF81430C3F3DC
:106D70008313090C9B4489E73246134003330532E1
:106D8000C5219DF8130044F82310226000F0C4FCD4
:106D9000B01C2840F21C331D2B402A4004EB80001D
:106DA00004EB820204EB830C029BC360039BD36061
:106DB0000021129B1348CCF80C3001F021FF80F326
:106DC0001000F900731C2B40019A01F03801354086
:106DD00004EB830341F0C1010004033540EA174787
:106DE00041EA8221DF6044F8251094F820341BB179
:106DF000FFF762FB0028FBD109B0BDE8F08F00BFB0
:106E000038330020543700202DE9F04F754C89B0FD
:106E1000002607460DF11300CDE9011203938DF80A
:106E20001360A56800F052FCD4E9012326681A44D7
:106E30000132921B052A00F2858004F21C4804F5F9
:106E4000836A04F214491BE0BDF81630C3F38913BA
:106E50000333090C0BEB930B4846009101F042FF02
:106E6000009900283ED04046C4F804B001F00EFF5F
:106E7000D4E90113226819440131891A052962D81D
:106E80000121404601F002FF504601F01BFF484639
:106E900001F018FFD4E9013C03EA0C02D11C04EB19
:106EA000810014F821E01EF0040F0EF0040129D136
:106EB00004EB8202591CD268059201EA0C0104EB32
:106EC000810102F00302012AC96803F1020B32D0EA
:106ED000022AB9D000214846009101F003FF009931
:106EE0000028C0D14046C1E743880BEB93130CEA5E
:106EF0000302D11C04EB810014F8211001F00401FD
:106F00000029D5D090F800E00EF0030EBEF1010F7D
:106F10000BD0BEF1020F03F1020B02F1030EE3D01E
:106F200004EB8E000029EDD1C2E702880233C2F3E0
:106F300083121344DBE7BDF81430C3F38313090C49
:106F40009B4489E7324613400333063240F2051171
:106F50009DF8130044F82310226000F0DDFBB11C03
:106F600006F1030C29400CEA050C321D731D2B4061
:106F70002A4004EB810104EB8C0C0298C86004EBFE
:106F8000820204EB830E039BCCF80C30129BD3607F
:106F90000021139B1448CEF80C3001F031FE80F331
:106FA0001000F90001F03801731C2B40019A41F4E4
:106FB0008071354004EB830341F001010004033587
:106FC00040EA174741EA8221DF6044F8251094F82F
:106FD00020341BB1FFF770FA0028FBD109B0BDE8DF
:106FE000F08F00BF38330020543700202DE9F04FD8
:106FF0008FB01F467A4C0392CDE90927199A189E43
:107000000C9200231A9A0B9680460DF117000D92F0
:107010008DF81730A568029100F058FBD4E90123E0
:1070200026681A440132921B062A00F2838004F279
:107030001C4904F2144A1BE0BDF81A30C3F389134B
:107040000333090C0BEB930B5046019101F04AFE00
:10705000019900283ED04846C4F804B001F016FE5D
:10706000D4E90113226819440131891A062962D82A
:107070000121484601F00AFE5A4801F023FE50461D
:1070800001F020FED4E9013C03EA0C02D11C04EB20
:10709000810014F821E01EF0040F0EF0040129D144
:1070A00004EB8202591CD268069201EA0C0104EB3F
:1070B000810102F00302012AC96803F1020B32D0F8
:1070C000022AB9D000215046019101F00BFE01992E
:1070D0000028C0D14846C1E743880BEB93130CEA64
:1070E0000302D11C04EB810014F8211001F004010B
:1070F0000029D5D090F800E00EF0030EBEF1010F8C
:107100000BD0BEF1020F03F1020B02F1030EE3D02C
:1071100004EB8E000029EDD1C2E702880233C2F3EE
:1071200083121344DBE7BDF81830C3F38313090C53
:107130009B4489E7324613400333073240F245113E
:107140009DF8170044F82310226000F0E5FAB11C06
:107150002940F01C06F1040CB31D2B4028400CEA1A
:10716000050C04EB8101721D04EB830E2A40039B86
:10717000CB6004EB800004EB8C0C189BC76004EB25
:107180008202CCF80C30199BD36000211A9B164860
:10719000CEF80C3001F034FD80F310004FEAC80146
:1071A00001F03801731C2B40029A41F4A071354064
:1071B00004EB830341F001010004033540EA184069
:1071C00041EA8221D86044F8251094F820341BB19C
:1071D000FFF772F90028FBD10FB0BDE8F08F00BFB8
:1071E00038330020503700205437002038B5094B81
:1071F000D3F81044012583F820544CB1E3685D7145
:10720000236820465B689847E3681C68002CF5D12A
:1072100038BD00BF3833002030B5C38885B0044680
:107220000D461BBB217A05291ED0627A82B9134A0A
:10723000A08852F8212003920021FFF703F9039A56
:107240000F490346284605B0BDE8304001F0AABD0D
:10725000A088FFF71BF90B4B0B4953F82020284659
:1072600001F0A0FD217AE2E705B030BD074A0092A7
:107270000749084A284601F095FDD3E700180300A6
:1072800068170300DC170300641703005C17030092
:10729000441703003C1703002DE9F04385B04FF07D
:1072A000000C0C9C814694F80C8084F80CC00E46AF
:1072B0001746184621461D46FFF7AEFF062F09D890
:1072C000DFE807F0042E343B444F1F0049462046B8
:1072D00001F068FD2B7A052B05D06B7A5BB9274945
:1072E000204601F05FFD204601F050FD84F80C803F
:1072F00005B0BDE8F083224A2249204601F052FD44
:10730000EDE7D6E90413F2680393B3680291CDE97F
:1073100000324946D6E90023204601F043FDD9E773
:1073200032684946204601F03DFDD3E7D6E9002307
:107330004946204601F036FDCCE7B3680093D6E914
:1073400000234946204601F02DFDC3E7D6E902326D
:1073500001920093D6E900234946204601F022FD20
:10736000B8E7D6E90321B3680291CDE90032494676
:10737000D6E90023204601F015FDABE774170300A2
:107380005C17030064170300082900D970472DE932
:10739000F04F9B4683B000241B7B8BF80C400D46BE
:1073A00006465946104690460193DFF8D0902C4F80
:1073B000FFF732FF05E0325D013401F0F3FC082CE9
:1073C00009D0A54239465846F5D84946013401F05E
:1073D000E9FC082CF5D12349DFF8A490224C234F77
:1073E000584601F0DFFC4FF0000A0DE0D15D11F0CE
:1073F000970F08BF2E22214658460AF1010A01F0D4
:10740000D1FCBAF1080F10D0554505D916F80A205D
:107410007E2AEBD92E22EEE7494658460AF1010AA8
:1074200001F0C0FCBAF1080FEED198F80830052B36
:1074300002D098F8093063B90D49584601F0B2FC02
:10744000584601F0A3FC019B8BF80C3003B0BDE85B
:10745000F08F084A0849584601F0A4FCECE700BF49
:1074600078170300841703008817030027360300EA
:10747000741703005C1703006417030080170300F0
:107480007017030030B482B001248DF80740144B0C
:107490009DF80750186044F20104A04259609A60B8
:1074A00013D044F20201884206D1DA60DA68128809
:1074B0009A61DA685268DA6172B69DF80730002B7B
:1074C000FBD162B602B030BC70471A611A6992688B
:1074D0005A611A6912689A611A695268DA61EBE7AF
:1074E0005C37002000B583B002900091019244F215
:1074F000010071466A4600F003F803B000BD00BF0A
:10750000F0B5044687B00E46154672B6FFF76EFE1C
:10751000FEF7D2FF0028FBD144F201039C423ED08B
:1075200010D8012C37D041F201039C4227D12A48C0
:107530002A4B2B49C01AC008000440F00100FFF795
:10754000F5F80FE044F202039C4218D12248234F81
:107550002B886A682349C01BC008000440F0010062
:10756000FFF78CFA204B1B68DB0700D500BE2A46CC
:107570003146204607B0BDE8F040FFF783BF174B08
:1075800015481A49C01AC008000440F001003246EC
:10759000FFF79CF9E6E71048104B1549CAE7AA68BF
:1075A0000E4B0D4F05921046FF1A02F02BFB296877
:1075B000059ACDE90116FF083F046968009147F07C
:1075C000010703460B493846FFF710FD0A493846C4
:1075D000FFF7ACF8C6E700BF08390300C83803005E
:1075E0004018030064180300F0ED00E0BC1803002D
:1075F0002018030080180300A8180300037F0BB1B4
:1076000000207047F0B5826183B004461A480D46E9
:1076100000F09AF8194B1A49D3E90023D1E9006721
:10762000121843F10003BB4208BFB24203D212F169
:10763000807243F100035219216943F10003C4E948
:10764000022301B125610F4801A901F0E5F948B114
:1076500000254460057001A90A4801F00BFA20B921
:1076600003B0F0BD042003B0F0BD034800F070F893
:10767000284603B0F0BD00BF08300020803700204E
:10768000983700208837002030B5002583B00446A5
:10769000057701A90B4801F0BFF978B101224460D8
:1076A000027001A9074801F0E5F908B903B030BD3F
:1076B000054800F04DF8284603B030BD042003B063
:1076C00030BD00BF883700200830002070B4EFF3D1
:1076D000108472B60D4B9A68AAB90D490D4E01255A
:1076E0009D60D1F8805035401D60C1F88060D1F8B0
:1076F00084505D604FF0FF33C1F88430027004B9EC
:1077000062B670BC704701230370F8E7143C002098
:1077100000E100E0FC06FFBD094B9A687AB170B940
:1077200010B4EFF3108172B6064A1C6814605C68EE
:107730005460986001B962B65DF8044B70477047B9
:10774000143C002000E100E00368D3F80405704712
:1077500090F9043005485A090121403203F01F0313
:1077600001FA03F340F82230704700BF00E100E067
:10777000024A034B10681B68184700BFA03700205F
:10778000A8370020F0B543688C461BB1324AD46854
:10779000A3423CD20023314EACF8003073684FF066
:1077A000010E03F580544FF6FF7708339C420ED844
:1077B000BEF1020FACF800E006F114064AD073687F
:1077C00003F5805408339C424FF0020EF0D91A683A
:1077D0000132EDD05A88033203EB82029442E7D3A0
:1077E0009D88BD4209D01D883DB19D68691C04D0AB
:1077F0000168A94205D01346D8E79442D8D9134668
:10780000E5E7174A4360138903810120F0BD12693F
:107810009342BFD813F00305BCD1114A04891289E1
:107820009442B7D104689A689442B3D10B48426835
:10783000934203D902F58052934207D3826993425F
:1078400008D902F58052934204D20125ACF80050C9
:107850000120F0BD0020F0BDF4310020EC37002005
:10786000D03700202DE9F04F9C4E8BB004464FF6E8
:10787000FF773568002D00F0CB802A78531E052B4A
:1078800000F29081DFE803F05C2323030341002C26
:1078900040F0C5802B79012B00F0C082022B00F054
:1078A000DA80002B00F092820DF11408C8E902443E
:1078B0000594C8F8104048F20E6406942B78013BFA
:1078C000052B4DD8DFE803F0756685799949B5F841
:1078D00014A0002C40F05482DFF82082A97D0AEB2E
:1078E0008A0308EB83034FEA8A091C895B6803EB70
:1078F0008404062900F27B84DFE811F02B021802D1
:10790000FE01EB01CA01B0019601002C40F0878016
:10791000DFF8ECC19CF80C30002B00F0C4809CF820
:1079200000308CF80C40013B062B00F23B81DFE875
:1079300013F01903F30224010C013901DD02E900FF
:10794000002C40F015822B79032B00F29F80DFE89A
:1079500013F05F0172005401340105238DF81430D7
:107960005F4C04F1100554F8043B404603B19847BE
:10797000A542F8D15B495C480024346001F0BAF8B4
:107980005A48012101F090F900287FF472AF0BB042
:10799000BDE8F08F01238DF814302B89ADF820302D
:1079A000AB88ADF82230EB68079300238DF82430C4
:1079B000D6E700238DF81430D2E703238DF8143076
:1079C000EB88ADF820302B89ADF82230EB680793B7
:1079D000C6E702238DF814302B89ADF82030AB8830
:1079E000ADF82230EB680793AB7DA3F10603B3FA41
:1079F00083F35B098DF82430B2E704238DF814304B
:107A0000EB88ADF820300023ADF822300793A7E7CC
:107A10003449354801F03EF8054630602DE74FF413
:107A200006440DF114080023C8E90033C8E9023305
:107A3000C8F8103041E7DFF8C48098F80030022B16
:107A400012D098F81430022B00F0A883284B0121A3
:107A5000002219705A600DF114080024C8E903448B
:107A6000C8F80840059428E700239A001A4408EB58
:107A70008203002059680090082308F822001D4A5C
:107A80001D4801F02BFD002881D03568184A0DF102
:107A900014080023C8E9023353600593C8F8103076
:107AA00048F20D6409E79CF80030072B09D8DFE89D
:107AB00013F0DC02080008000E03FA022900290076
:107AC000D602013B062B6DD8DFE813F04C022602EC
:107AD00057003F006C0010021C0000BFE837002078
:107AE000B8370020E0370020143800202438002068
:107AF000C8370020E4180300F4310020EC370020E0
:107B0000D0370020BB4BBC4A1968BC480023009307
:107B1000CCF8043007238CF80030082301F0DEFC99
:107B20000446002C3FF433AF35680DF1140841F6DC
:107B30001D5200239442C8E90333C8F80830059366
:107B400008BF1C463FF4B9AE16E3BCF80230DFF8BC
:107B5000C88203EB830308EB8308D8F80C30002BB2
:107B600040F04D8204228CF80020D8F80410A3487D
:107B7000012201F051FD0446D3E7DCF804209D48C2
:107B80005388848801689D4803339BB29B0001EBB6
:107B900084010024009403248CF8004001F09EFC32
:107BA0000446BEE70DF114080023C8E90333C8F802
:107BB0000830059348F20E647FE68E4C904A2168A7
:107BC0008E48DFF854824FF0000985F804900823AE
:107BD000CDF8009001F082FC8A4B25685B88A18873
:107BE00003EB830308EB830208F8239053682360B8
:107BF000022355601181A38045E77E4A7F481168C2
:107C0000002302242B719480012201F005FD3AE744
:107C1000784B794A1968794801232B710023009326
:107C2000082301F05BFC2EE72A4641F61D5409EBC0
:107C30000A0108EB8101EB880889033303440B81B7
:107C4000D144EB8808EB8908C3F57F43B8F80A10E4
:107C5000FD330B441546A8F80A3066E76A4B6B4AB9
:107C60001C88516865486A4A00234FF0060C85F865
:107C700016C00093042301F031FC18BB04EB84040C
:107C800008EB8408012388F810300BB0BDE8F08FB2
:107C90005E48AB695C4903604FF0000BC0F804B06C
:107CA000FFF770FD002800F06A820223AB75042301
:107CB0005248CDF800B02146EA1801F00FFC002828
:107CC0003FF465AEAB7D3268022B48F20D64B7D944
:107CD000ADE7EB882A6949484FF0010C04F10C012B
:107CE000002485F816C09B00009401F0F7FB0028E3
:107CF000E8D10BB0BDE8F08F2B694048002B14BFD2
:107D0000032301230022AB7504F108010092042330
:107D100005F10C0201F0E2FB00283FF438AEAB7D28
:107D20003268022B48F20D648AD980E7032A0CBF1F
:107D3000052306230022AB7530480092211D042341
:107D400005F1080201F0CAFB0028BBD10BB0BDE869
:107D5000F08F02230022AB750423009227482146AE
:107D6000EA1801F0BBFB0028ACD10BB0BDE8F08FE6
:107D7000284B00225A604FF406440DF1140852E6D5
:107D8000AB7DDFF89480022B08D90AEB8A0208EB5E
:107D90008202EB88118903330B4413814FEA8A096D
:107DA00009EB0A01EB8808EB8101C3F57F434A899F
:107DB0000DF11408FD3313440022C8E903224B815E
:107DC000C8F8082005924FF4064476E502232B718B
:107DD000CDE906440DF11408EB68059340460DF11A
:107DE0001201FFF7CFFC002840F09E8148F20964A1
:107DF00019E600BF28380020EC180300F4310020F9
:107E0000E4180300D037002030380020AC370020C1
:107E1000E0180300C8370020EC370020BB4B1B786C
:107E2000002B00F09B81DFF8E8E2BEF80490B9F186
:107E3000010F12D8DFF8EC82039409EB890208EBFA
:107E40008202137883B109F1010399B2012999469D
:107E5000AEF8043002F11402F3D9AD480822002133
:107E600007F01CFA3568F6E55368DEF8001003F5F4
:107E7000805C03F1080A002900F06E814B8803330F
:107E800001EB83018C4506D8039BCEF80030DAE77E
:107E90009C45F9D919460B680133F5D04B8803335B
:107EA00001EB83039C45EFD38C88BC42F0D0B1F842
:107EB00000B0BBF1000FEBD088680130E8D0EB8850
:107EC000CEF80010A342D6D100230093914A9248E5
:107ED000042301F003FB002840F07E8109EB8909AF
:107EE00008EB8908012388F8103050E5BCF802201F
:107EF000DFF830829300134408EB83080620002348
:107F0000D8F80410854A00938CF8000008238248B2
:107F100001F0E4FA044604E6BCF80200DFF804824B
:107F2000DCF8042000EB800308EB83034FEA800EAB
:107F3000596801F58055002A40F0E28001F10802FD
:107F4000AA426DD3704408EB8008D8F80C30002B9F
:107F500055D104208CF8000001226F4801F05CFB31
:107F60000446DEE59CF80A3063B1DFF8B881D8F842
:107F70000C3000228CF80A2023B998F81020002A2F
:107F800040F030819CF80B3053B1DFF89881D8F87D
:107F9000203000228CF80B2013B998F8243073B9E4
:107FA0000DF114080023C8E90333C8F808308CF831
:107FB0000030ACF80230CCF8043005937DE40123A6
:107FC00018464FEA830E0EEB030108EB8101DCF843
:107FD00004204968ACF8020001F58055002A00F041
:107FE00003815088033002EB8002954200F2D88072
:107FF000734408EB8308D8F80C30002BA9D0484B09
:108000004548196802229A8005228CF80020002336
:10801000012201F001FB044683E5AB4292D21A46ED
:10802000136801338ED05388033302EB8303AB42D2
:1080300088D89488BC42F0D01488002CEDD0946885
:108040000134EAD0CCF80420354C5388A588216847
:10805000314803339BB29B0001EB850199E5012375
:108060008CF800309CF80A307EE7DFF8B880BCF866
:10807000081098F8142098F80030B2FA82F25209E9
:108080000131B3FA83F35B098CF80B20ACF80810CC
:10809000002201218CF80A30ACF802208CF80C2068
:1080A0008CF8001060E7BCF80220DFF878801C49EB
:1080B00002EB820308EB830308685D688C885860D4
:1080C00002201C810D60888002FA00F313E7BCF8DF
:1080D0000200134CDFF84C80DCF80420A38855889C
:1080E00000EB800108EB8101033349682B444FF01A
:1080F000020901F58055A38000FA09FE8CF8009072
:108100005388033302EB83021AE700BFC83700200D
:1081100034380020E0180300F4310020E418030094
:1081200028380020EC3700200699334A8B88EB80F2
:108130000B882B81314800940423BDF8124001F0D4
:10814000CDF938BB2E4B04EB840403EB84040123EC
:1081500023740BB0BDE8F08F514693E60DF114087F
:1081600021462848082207F099F8C8E902440594F6
:10817000C8F8104048F201643568FFF79EBB0DF166
:108180001408C8E90200059048F20964C8F8100014
:10819000FFF793BB356848F20D6444E4012364E4BF
:1081A000106801303FF424AF5088033002EB8000A8
:1081B0008542FFF41DAF9488BC4205D014881CB1E1
:1081C000946801347FF43EAF85427FF611AF0246DA
:1081D00010680130E8D10BE7356848F20D640DF105
:1081E000140820E41846ECE601F10802FDE62A46F0
:1081F00048F20E641BE500BFE0180300F4310020D4
:10820000EC370020343800204068FFF72BBB00BF5C
:1082100030B370B50D4682B0F1B10DF106010446E0
:10822000FFF7B0FA18B948F2096002B070BDBDF8A6
:1082300006000D4B666800EB800003EB8000012117
:108240000C3000F023FD2E60636801220C33002007
:108250006B60A27202B070BD48F2046002B070BDE3
:1082600048F20460704700BFEC37002010B310B52F
:1082700082B00DF106010446FFF784FAB0B1BDF8F3
:1082800006300E4A03EB830302EB8303DA684AB13C
:10829000A27A3AB1DA680021013A0846DA60A1729E
:1082A00002B010BD48F2056002B010BD48F209608E
:1082B00002B010BD48F20460704700BFEC370020E8
:1082C0002DE9F047514B1B7882B083B30C4600294F
:1082D00045D00A884FF6FF739A4222D04B8803B3E9
:1082E0004D6815F0030534D1B1F8089009F1030386
:1082F0009BB240F2FE32934234D8454A1178074689
:1083000039B9508911890144194489B2B1F5806F96
:108310002BD9117D89B148F20665284602B0BDE827
:10832000F08748F20365284602B0BDE8F08748F2BE
:108330000165284602B0BDE8F087D08B918B0144DF
:10834000194489B2B1F5806FE5D84FF00108414674
:108350000DE048F20265284602B0BDE8F08748F219
:108360000465DAE748F20865D7E7A84629464FEAE8
:10837000810A8A4402EB8A0A034401A92548AAF823
:108380000A3000F049FB1C220646002106F086FF59
:10839000002E2FD002234FF0000AA6F8148033706D
:1083A00086F816A06368336101211B4800F06EFC5B
:1083B000F0602388338163881648B38001A9A6F84A
:1083C0000AA0A6F8069000F055FB47B1C7F804A034
:1083D000F268124B3A601B8987F80AA03B8110486B
:1083E000012100F045FC0446002896D1FFF73AFA37
:1083F000254692E7BAF80A30C9F57F4909F1FD0927
:108400009944AAF80A9048F2076586E7C837002021
:10841000EC37002014380020E4370020D03700204B
:10842000243800202DE9F04782B068B3524B1B7806
:10843000002B41D00C4639B30A884FF6FF739A429D
:1084400034D04B8893B34E6816F003063AD1B1F896
:1084500008A00AF103039BB240F2FE32934234D8E3
:10846000464A1178054639B951891089084418449B
:1084700080B2B0F5806F2BD9117D59B148F20666F4
:10848000304602B0BDE8F08748F20466304602B0DC
:10849000BDE8F087D18B908B0844184480B2B0F5CA
:1084A000806FEBD84FF00109484613E048F20366AD
:1084B000304602B0BDE8F08748F20166304602B0AF
:1084C000BDE8F08748F20266DAE748F20866D7E7C7
:1084D000B14630464FEA8008804402EB88080B44DE
:1084E0002748A8F80A3001A900F096FA1C2207468E
:1084F000002106F0D3FE002F32D04FF000080323F6
:10850000A7F814903B7087F8168063683B610121DF
:108510001C4800F0BBFBF86023883B816388BB806C
:108520000423A7F806A0BB752B68BB6101A91448FA
:10853000A7F80A8000F09EFAC5F80480FA68124B8A
:108540002A601B89114885F80A802B81012100F0DF
:108550008FFB0446002893D1FFF784F926468FE766
:10856000B8F80A30CAF57F4A0AF1FD0A9A44A8F819
:108570000AA048F2076683E7C8370020EC370020DE
:1085800014380020E4370020D037002024380020A1
:1085900070B51D4B1B7882B00BB34FF6FF7398423A
:1085A000044626D001A9194800F036FA1C220546D7
:1085B000002106F073FEBDB105230126EC8001A960
:1085C0002B7012482E7100F055FA1148314600F018
:1085D0004FFB044690B10024204602B070BD48F223
:1085E0000164204602B070BD48F20764204602B024
:1085F00070BD48F20364204602B070BDFFF732F947
:10860000204602B070BD00BFC837002014380020DB
:10861000243800202DE9F047324C2478002C59D022
:10862000002A5BD0002B59D09F88012F14D82E4EE2
:1086300007EB87048A4606EB84064FF6FF7E4FF071
:10864000000834785CB10137BCB2022C9C8006F182
:1086500014064FF00107F4D148F2096035E01C68B8
:10866000756805F5805C002C31D06588033504EB16
:108670008504644505D3C3F80080E4E7AC45FAD926
:108680002C4625680135F6D06588033504EB850551
:10869000AC45F0D3B4F80490F145EFD0B4F80090B5
:1086A000B9F1000FEAD0A1680131E7D01C60A588BC
:1086B0008542D5D125885545D2D1A1681160196868
:1086C0000A4B51601B8913810020BDE8F08705F13A
:1086D0000804CEE748F20160BDE8F08748F2046084
:1086E000BDE8F087C8370020EC370020D0370020E5
:1086F000304B1B78002B56D0002957D0002A55D07C
:108700002DE9F041B2F804E0BEF1010F14D82A4D72
:108710000EEB8E0305EB83054FF6FF774FF0000C51
:108720002B7863B10EF101039BB2022B938005F10C
:1087300014054FF0010EF3D148F209602EE01368E2
:108740006C6804F580585BB35C88033403EB8403E6
:10875000434505D3C2F800C0E4E7A045FAD9234653
:108760001C680134F6D05C88033403EB8404A04514
:10877000F0D39E88BE42F0D01E88002EEDD09E68B9
:108780000136EAD013601C888442D9D19B680B6003
:1087900012680A4B4A601B890B810020BDE8F081FA
:1087A00004F10803D4E748F20160704748F204601E
:1087B000704700BFC8370020EC370020D0370020BA
:1087C000304B1B78002B56D0002957D0002A55D0AB
:1087D0002DE9F041B2F804E0BEF1010F14D82A4DA2
:1087E0000EEB8E0305EB83054FF6FF774FF0000C81
:1087F0002B7863B10EF101039BB2022B938005F13C
:1088000014054FF0010EF3D148F209602EE0136811
:108810006C6804F580585BB35C88033403EB840315
:10882000434505D3C2F800C0E4E7A045FAD9234682
:108830001C680134F6D05C88033403EB8404A04543
:10884000F0D39E88BE42F0D01E88002EEDD09E68E8
:108850000136EAD013609C888442D9D19B680B60B2
:1088600012680A4B4A601B890B810020BDE8F08129
:1088700004F10803D4E748F20160704748F204604D
:10888000704700BFC8370020EC370020D0370020E9
:1088900020B119B103680B600020704748F20460F2
:1088A000704700BFBFF34F8F0549064BCA6802F4FB
:1088B000E0621343CB60BFF34F8F00BFFDE700BF03
:1088C00000ED00E00400FA052DE9F04782B0804693
:1088D000FEF78CFCFDF7F0FD0028FBD1344B354F43
:1088E0009D6A354BB8F1000F57D0FF1AFF083F04BF
:1088F00047F00107D8F8182030493846FDF7E6FF61
:10890000D8E9023201920093D8E900232C49384675
:10891000FEF77AFAD8F81C300093D8E904232949E5
:108920003846FEF78BF9224BDB6A980722D4DFF832
:10893000ACA0DFF8AC900024012606FA04F32B4229
:1089400006D05AF82420494638460AB1FDF7BEFF42
:1089500001341A2CF1D1290618D42A040FD41A4B49
:108960001B68DB0700D500BE4046FFF79BFF02B047
:10897000BDE8F08715493846FDF7D8FED7E70C4B20
:1089800013499A6B3846FDF7A1FFE8E7084B1149F8
:108990005A6B3846FDF79AFFDFE7FF1AFF083F04DE
:1089A00047F001070C493846FDF7C0FEBBE700BFA2
:1089B00000ED00E040390300C8380300F41803005C
:1089C0000C19030044190300F0ED00E0A0190300A6
:1089D000101A0300F01903006C1903000C1F0300A8
:1089E000E41903001EF0040F1CBFEFF309800AE036
:1089F000EFF308800549064A884201D8904202D820
:108A00008D464FF00000034B184700000000012086
:108A100000E00020C988020030B482B050E8013F75
:108A20009DB2C48925448489A54228BF2D1B048991
:108A3000A54202BFBFF32F8F002207E0C5EA03055E
:108A400040E80154002CE9D14FF001028DF80320D9
:108A50000193019B9DF803200B602AB10B880068ED
:108A6000184402B030BC704702F0FF03184602B051
:108A700030BC70470A884B889A4201D0002070476A
:108A800050E8012FC2EA024240E80123002BF7D14F
:108A90000120704730B482B050E8023F1FFAA3F5BE
:108AA000C488A54202BFBFF32F8F00220DE0C48906
:108AB00025448489A54228BF2D1BC3EA054540E80B
:108AC0000254002CE8D14FF001028DF803200193ED
:108AD000019B9DF803200B602AB14B880068184465
:108AE00002B030BC704702F0FF03184602B030BC41
:108AF000704700BF0A884B889A4201D00020704717
:108B000050E8022FC2EA224240E80223002BF7D1AC
:108B1000012070474A09012301F01F0100EB820088
:108B200003FA01F100F088B84B0910B501F01F04F9
:108B3000012100EB8300A14000F070F8E04000F05C
:108B4000010010BD01F01F0201234909934000EB11
:108B50008100D94300F07EB84B0901F01F0150F8A5
:108B60002300C84000F00100704700BF2DE9F04F1E
:108B700001F1FF3A83B04FEA5A130D4604460193C0
:108B80004FF000094FF0010854F8293004EB890632
:108B90006FEA030B9BFAABFBBBFA8BFBBBF1200F1D
:108BA00025D00BEB491B5D454FEA49170CD81EE059
:108BB0003368DB4393FAA3F3B3FA83F3202B07EB79
:108BC000030B14D05D4512D90BF01F034FEA5B1065
:108BD00008FA03F104EB80009A4600F01FF820FA2F
:108BE0000AF0C307E4D4584603B0BDE8F08F019AF9
:108BF0004A4509F1010301D09946C5E7AB46F2E7C2
:108C000010B4034653E8000F0A4643E8002494F0EA
:108C1000000FF7D15DF8044B704700BF10B4034656
:108C200053E8000F40EA010243E8002494F0000FEB
:108C3000F6D15DF8044B704710B4034653E8002F9B
:108C400042EA010043E8000494F0000FF6D15DF819
:108C5000044B704710B4034653E8002F02EA0100AA
:108C600043E8000494F0000FF6D15DF8044B704720
:108C700010B4034653E8000F00EB010243E8002460
:108C800094F0000FF6D15DF8044B704710B4034622
:108C900053E8002F02EB010043E8000494F0000FBA
:108CA000F6D15DF8044B704710B4034653E8002F2B
:108CB000A2EB010043E8000494F0000FF6D15DF848
:108CC000044B704710B40346012253E8001F41EAE9
:108CD000020043E8000494F0000FF6D15DF8044B65
:108CE000704700BF10B40346002253E8000F00EAAB
:108CF000020143E8001494F0000FF6D15DF8044B34
:108D0000704700BFF0B583B0044600250DF10700A1
:108D10008DF80750FEF7DAFCD4E900311A688A4270
:108D200010D9511E19602168A3680F6812F8015C00
:108D30000A79268AE068DB1BDBB29A4206FB05054E
:108D400038BF0B719DF80700FEF7E6FC284603B01C
:108D5000F0BD00BF30B5054683B000230DF107001C
:108D60000C468DF80730FEF7B1FC2A681368591CD1
:108D70001160E9682A8A641AB4FBF2F41C709DF849
:108D80000700FEF7C9FC03B030BD00BF826842B1E6
:108D900010B5044643690168006998470023A36041
:108DA00010BD70470EB400B582B0039921B104AB79
:108DB00001AA019300F0ACF802B05DF804EB03B037
:108DC000704700BF2DE9F04F164683B0B142DDE990
:108DD0000C920F4605469A46C0F095800B464FF020
:108DE0000108B3FBF6F39E4208F10108F9D9D0451A
:108DF00038BFD04612F00103019302D1B9F1000F40
:108E00005ED1AA68012403E00AF1FF3A06FB04F4EC
:108E1000BAF1010FF8D8B7FBF4F39E42F6D9DFF8A8
:108E2000ECA007E0B442B4FBF6F31AD3AA681C46E0
:108E3000B7FBF3F31AF803B0BBF10A0F04FB137787
:108E400028D02B68511CA96003F802B0D5E9013283
:108E50009A42E7D32846FFF799FFB4FBF6F3B442F2
:108E6000E4D2019B9BB1B9F1000F10D02024C8457A
:108E700009F1FF390BD2AB682A68591CA960D45498
:108E8000D5E901329A4214D2B9F1000FEFD103B003
:108E9000BDE8F08F511C2B68A9604FF00D0199546B
:108EA000D5E901329A42CCD32846FFF76FFFAA6872
:108EB000C7E72846FFF76AFFB9F1000FD7D1E6E709
:108EC00093071AD42024AA68C84502F1010199D257
:108ED0002B68A9609C54D5E901329A4209F1FF3907
:108EE00003D2B9F1000FEFD18CE72846FFF74EFF10
:108EF000AA68B9F1000FE7D184E7BAF1000F0CBFFF
:108F000030242024DFE74FF0010870E7741F0300CE
:108F1000002900F054822DE9F04FDFF8B8950C7865
:108F200085B0064690460D464FF00D0A10E00A2C1B
:108F3000B36800F0AD803268591CB160D454D6E9F2
:108F400001329A4280F0A0802C78002C00F08780BB
:108F50000135002C00F08380252CE8D1294600271C
:108F60000D4611F8012B2D2A00F08880302A00F0E0
:108F700088802B2A7AD02A2A00F09980A2F1300327
:108F8000092B4FF000040BD804EB840402EB4404DB
:108F900015F8012FA2F13003092BA4F13004F3D905
:108FA0002E2A00F09080002301E015F8012F02F036
:108FB000FB016829F9D0252A00F07781583AD1B20F
:108FC000202947D8202A45D8DFE812F0350144008F
:108FD0004400440044004400440044004400440071
:108FE00044004301130144004400440044001301C1
:108FF000440044004400440044004400D2004400C3
:109000004400A200440094004400440035010120C3
:109010009842024638BF1A460292002C40F0508116
:10902000B80740F16E81002B40F04E821C46BBF128
:10903000000FC0F20A827A0700F11A8207F00302D9
:10904000022A00F0EA81CDE9004759460A2230465B
:10905000FFF7B8FE01352C78002C7FF479AF337B15
:10906000002B40F01C8105B0BDE8F08F0D4611F8D3
:10907000012B2D2A47F004077FF478AF47F0010752
:109080006EE747F002076BE73046FFF77FFE5BE7CE
:109090003268591CB16002F803A0D6E9012393425B
:1090A000FFF449AF3046FFF771FEB36843E7D8F8E5
:1090B00000301A1DC8F800206A781C682E2A05F1B5
:1090C00001057FF470AF6A78A2F13003092B05F136
:1090D00001054FF000033FF66AAF03EB830302EB99
:1090E000430315F8012FA2F130010929A3F1300340
:1090F000F3D95CE7D8F80020111DC8F800101168FA
:109100003046CDE900470A22FFF75CFE0135A2E7B1
:10911000D8F800301A1DC8F8002017F00107D3F85E
:1091200000B040F0F080BBF1000F03D0584606F0CD
:1091300000FC0746BC4240F24381002C00F0408115
:10914000202205E0BC4200F03B81002C00F0388179
:10915000B1683368481CB0605A54D6E9013098426F
:1091600004F1FF34EED33046FFF710FE2022E9E78A
:10917000D8F80020131DC8F80030B36831681768AC
:10918000581C3022B060CA54D6E90123934280F0C3
:10919000EF803268581C7821B060D154D6E9013292
:1091A0009A4280F0E0800F2F03D93B461B090F2B1A
:1091B000FCD84FF0805406E00F2C4FEA14137FF6D2
:1091C00049AFB2681C46B7FBF4F319F803B0BBF122
:1091D0000A0F04FB137754D03368511CB16003F8B5
:1091E00002B0D6E901329A42E6D33046FFF7CEFD0F
:1091F000E2E7D8F80020111DC8F80010D2F800B03E
:109200008BEAEB72A2EBEB72092A7FF700AFDFF873
:10921000C8C2012011466329ACFB02E200F1010043
:109220004FEAD202F6DC9842024638BF1A46029252
:10923000002C45D1F4E6D8F80020111DC8F8001024
:1092400011683046CDE900471022FFF7BBFD01351C
:1092500001E7D8F800301A1DC8F800201C78B36860
:109260000A2C00F011813268591CB160D454D6E93F
:1092700001329A42FFF4EEAE3046FFF787FD01352A
:10928000E9E63368511CB16003F802A0D6E9013267
:109290009A42A1D33046FFF779FDB2689CE7304689
:1092A00005B0BDE8F04FFFF771BDB3683168581CD9
:1092B000B060CA54D6E901329A42DDD20135CAE61D
:1092C000BBF1000F59DB7A0757D4B80702D5002B42
:1092D0003FF4ADAEF9073FF5AAAE94B12022029952
:1092E000A142BFF4A4AEB168481CB06030684254DB
:1092F000D6E90101814204F1FF3480F0D480002CD2
:10930000EDD1002493E69BF80030002B00F0E080C4
:10931000B0685F46CBF101020A2B02EB070B3CD091
:10932000411CB16031680B54D6E90130984226D215
:1093300017F8013F002BEFD15C457FF68BAE20275D
:1093400002E05C453FF486AEB2683368511CB16000
:109350009F54D6E901329A4204F1FF34F1D33046EA
:10936000FFF714FDEDE73046FFF710FDB2681AE78E
:109370003046FFF70BFDB3680BE7013CA5E730462D
:109380000292FFF703FD17F8013F002BD4D0029A99
:10939000B0680A2B02EB070BC2D1411CB1603168E7
:1093A00001F800A0D6E901108842B9D33046CDE9D2
:1093B0000232FFF7EBFCDDE90232B068B0E770473C
:1093C0009BF80040002C3FF445AE0A2CB0680ED04C
:1093D0003368421CB2601C54D6E90130984214D262
:1093E0001BF8014F002C3FF435AE0A2CF0D1336846
:1093F000421CB26003F800A0D6E901309842E7D3DE
:109400003046FFF7C3FCB068E2E73046FFF7BEFC2A
:109410001BF8014F002CD8D11CE6002B7FF413AEB3
:109420008CB130220299A142BFF40DAEB168481C44
:10943000B06030684254D6E90101814204F1FF3442
:109440003BD2002CEED10024FDE5B1684A1CB2608D
:1094500032682D205054D6E901219142CBF1000B06
:10946000FFF4ECAD30460393FFF790FC039BE5E57A
:10947000B1684A1CB26032682B205054D6E90121F1
:109480009142FFF4DBADEDE73268591CB16002F8A0
:1094900003A0D6E901239342FFF4E5AE3046FFF77F
:1094A00075FCB368DFE630460393FFF76FFC039B60
:1094B0002022002C7FF413AF23E730460393FFF7FD
:1094C00065FC039B3022BCE7F9073FF5B0AD18E718
:1094D0009B4631E7741F0300CDCCCCCC2DE9F04185
:1094E00082B0002858D0002A68D0D0F800E0BEF141
:1094F000000F68D01D4673B34768D7F80480B3FBEC
:10950000F8F708FB1737002F37D18F073AD112F041
:10951000030F3CD1C768B94211D23348334C344BA6
:10952000344A3549001BC0081024000440F00100F3
:109530000094FDF783FB204602B0BDE8F08104698A
:109540004E1E3544A542E8D8DEF80C40A44602B0D1
:10955000BDE8F04160472448244C254B274A264962
:10956000001BC0080924000440F001000094FDF72E
:1095700065FB204602B0BDE8F0811B481B4C1C4B2C
:109580001F4AECE71848194C194B1E4AC9E7164800
:10959000164C174B1C4AC4E71348144C144B1B4A77
:1095A0001549001BC0080E24000440F0010000947F
:1095B000FDF744FB204602B0BDE8F0810A480B4CA1
:1095C0000B4B134AECE7094C0748094B114A0A496F
:1095D000001BC0080824000440F001000094FDF7BF
:1095E0002DFB2046A8E700BF58390300C838030008
:1095F00038210300882003008C1F0300D41F0300C0
:10960000202003004C20030064200300841F03007B
:1096100018200300C01F0300F0B583B0002843D01A
:10962000D0F800C0BCF1000F4ED03AB34768D7F86D
:1096300000E00EF1FF370F4231D1C768B94210D2B6
:1096400029482A4C2A4B2B4A2B49001BC0081024BE
:10965000000440F001000094FDF7F0FA204603B04A
:10966000F0BD04694D1E0EFB0255A542E8D8DCF89A
:109670001040A44603B0BDE8F04060471B4C1A48B8
:109680001B4B1E4A1C49001BC0080924000440F063
:1096900001000094FDF7D2FA204603B0F0BD124855
:1096A000124C134B164ACFE7104C0F48104B154A7B
:1096B0001149001BC0080E24000440F00100009472
:1096C000FDF7BCFA2046CAE7084C0748084B0E4A8B
:1096D0000949001BC0080824000440F00100009460
:1096E000FDF7ACFA2046BAE758390300C838030042
:1096F0004C210300D82003008C1F0300D41F03005B
:10970000B0200300841F0300C01F030029DF70473F
:1097100028DF7047034B187A0122B0FA80F05A74A0
:10972000400970474C38002030B5394D2B7A87B04E
:10973000002B39D0374B1C6802232B722379002B66
:109740003DD0012B24D022689368C3B10023CDE91A
:10975000033302930093A3680593032301932379B2
:10976000002B48D0012B07D1E368616904911B03EA
:10977000022102938DF800109368684698470023F1
:10978000254926482B726B60FFF7B4F907B030BD4E
:10979000D4E903031844FFF7BBFF20B31128D2D14B
:1097A00001232B7207B030BD1B491C48FFF772F92B
:1097B000184B044618600028BED16860E6E7D4E97B
:1097C0000520121AB2F5805F28BF4FF48052D4E909
:1097D00003139208012A38BF012201441844FFF7FD
:1097E00095FF0028DAD12B7C002BCFD10146022037
:1097F00000F016F8CAE72069E1680123CDE902010B
:109800008DF8003063690493936868469847B6E71B
:109810004C38002064380020603800203C3800209C
:10982000831E012B3FD810B5334C237A86B0002B12
:1098300037D0022B31D103283AD0304B00221B689D
:10984000E2601A79002A40D0012A26D1D3E9042106
:1098500001328A421A6120D10020207219688A6878
:10986000BAB10022CDE90322029200929A680190D7
:1098700005921A79002A35D0012A07D1DA685B6986
:1098800004931303022202938DF800208B6868462C
:1098900098471B491B48FFF72DF9637C23B9FFF755
:1098A00043FF06B010BD704705F004F806B010BDC8
:1098B000E3680133082B01D8E360EEE70F4B002289
:1098C0001B68E26022720D20C8E7D3E90512881AEE
:1098D000B0F5805F94BF121802F5805291429A61F0
:1098E000DBD1B9E7012218698DF80020DA685B69DD
:1098F0000493CDE90202C9E74C3800206438002007
:10990000603800203C38002000F0FD03012B00D01F
:10991000704730B53B4DA0F10100B0FA80F02B7AD2
:109920004009002287B028746A74002B4AD0364B55
:109930001C6802232B722379002B4ED0012B07D1F8
:10994000D4E903031844FFF7E3FE48B311281BD002
:10995000226893687BB10023CDE90333029300931F
:10996000A36805930323019323790BB3012B0ED036
:109970009368684698470023244925482B726B60FA
:10998000FFF7B8F807B030BD01232B72FAE7E368A0
:10999000616904911B03022102938DF80010E7E72F
:1099A0002B7C002BEED101460220FFF739FFE9E7BF
:1099B0002069E16801238DF8003063690493CDE9E3
:1099C0000201D5E711491248FFF764F80E4B04462F
:1099D00018600028ADD16860D4E7D4E90520121AD8
:1099E000B2F5805F28BF4FF48052D4E90313920888
:1099F000012A38BF012201441844FFF787FE0028DE
:109A0000A4D1CDE74C380020643800206038002015
:109A10003C3800202DE9F041058A0331043D4E1900
:109A20008046B6FBF5F6FFF76DF9A0B3F6B24FF43A
:109A30008073013E0446C580C0F8008083802BD02F
:109A40000346002508E06279AE4202F1010262712C
:109A50003860C0F800801FD040461F46FFF752F91B
:109A6000013503460028EED16779791E17D02246CA
:109A7000013399421268FBD1D2F800805FB12668A9
:109A8000002501E034463668214601354046FFF79F
:109A900061F9AF42F6D800242046BDE8F081206885
:109AA0002146FFF757F9F6E704300121FFF7EEB83A
:109AB0002DE9F041012104460430FFF7F5F810F0DC
:109AC000FF0301D0BDE8F0816779791E16D02246E8
:109AD000013399421268FBD1D2F80080002FF1D0F7
:109AE0002668002501E034463668214601354046A7
:109AF000FFF730F9AF42F6D8BDE8F0812068214683
:109B0000BDE8F041FFF726B92DE9F8430546C688C0
:109B10004079144606FB00F2043A04EB030C1F1DC7
:109B2000624538BFD41ABE428846B7FBF6F106FB41
:109B3000117002D801392D68FCD1371AA74228BF0D
:109B400027469CB14FF000090430E41B28443A46F4
:109B500008EB090105F094FBA642B9442D6837468D
:109B60004FF0000028BF2746002CEDD1BDE8F88358
:109B70002DE9F8430546C6884079144606FB00F2F5
:109B8000043A04EB030C1F1D624538BFD41ABE42D1
:109B90008846B7FBF6F106FB117002D801392D6833
:109BA000FCD1371AA74228BF27469CB14FF00009C5
:109BB00004302918E41B3A4608EB090005F060FB65
:109BC000A642B9442D6837464FF0000028BF27460B
:109BD000002CEDD1BDE8F88301600B6843604A6852
:109BE000934204BF00234360704700BF436843B102
:109BF000026891680B4443605268934204BF00239B
:109C000043607047114910B4A1F5947205E052F811
:109C10003330984238BF21460CD28C1AE30F03EB45
:109C2000E4035B10914202EBC304F0D808485DF8EE
:109C3000044B704702D904F10802EEE76068044B58
:109C40005DF8044B002808BF18467047A0260300A3
:109C50006425030030B4B84B1B78062B20D0B74BDB
:109C60001B68062B00F08180B54AD2F8883043F497
:109C70007003C2F88830BFF34F8FBFF36F8F4FF080
:109C80001023D3F80022002AC0F28681D3F80432D0
:109C9000002BC0F28181AB4BAB4A1A6030BC7047DD
:109CA000AA4B1B681D07DAD1A94B1B6803F0F00211
:109CB000302A00F09B8003F0E003402B00F09680F8
:109CC000A34B1B6803F0F003302B00F0A080A04BE7
:109CD0001B6803F0F002302A77D003F0E003402B3A
:109CE00073D09B4B1B6803F0F003302B00F0148102
:109CF000974B1B6803F0F002302A52D003F0E003C8
:109D0000402B4ED0924B1B6803F0F003302B00F039
:109D1000F5808F4B1B6803F0F003302B00F0D780E9
:109D20008B4B1B6803F0F003502B7ED0884B1B68D5
:109D300003F0F002302A23D003F0E003402B1FD0C1
:109D4000834B1B6803F0F002302A03D003F0E003DA
:109D5000402B84D14FF08043D3F80024D20744BF76
:109D60006FF00102C3F8002479E77A4B1B68062BD9
:109D70007FF47AAF784A136843F48063136073E723
:109D8000764B6D4A1B681278754903F04F03062A1B
:109D90000B607FF464AF6D4B1B6819077FF45FAFF6
:109DA000CEE7654A11784FF0804300220629C3F8B8
:109DB0000C21C3F81021C3F838257FF450AF634B52
:109DC0001B681B077FF44BAF9CE7664B5A4A1B6826
:109DD00012786549C3F34233062A0B607FF43FAF24
:109DE0005A4B1B6819077FF43AAF7AE75F4B524A28
:109DF0001B6812785E49C3F30423062A0B607FF4C4
:109E00002EAF524B1B681C077FF429AF58E74A4B13
:109E1000584A1B7858491160062B7FF420AF4B4BF2
:109E20001B6818077FF41BAF51E74FF08052534B6C
:109E3000D2F80414C3F82015D2F80814C3F8241576
:109E4000D2F80C14C3F82815D2F81014C3F82C1546
:109E5000D2F81414C3F83015D2F81814C3F8341516
:109E6000D2F81C14C3F84015D2F82014C3F84415D6
:109E7000D2F82414C3F84815D2F82814C3F84C15A6
:109E8000D2F82C14C3F85015D2F83014C3F8541576
:109E9000D2F83414C3F86015D2F83814C3F8641536
:109EA000D2F83C14C3F86815D2F840142248C3F81D
:109EB0006C15D2F844140278C3F87015062A7FF4A2
:109EC000CEAE224B1B6818077FF4C9AE2EE71A4BA3
:109ED0002B4C1B782B492C482C4A05252560012545
:109EE0000D6000243F21062B046011607FF4B7AEA3
:109EF000164B1B681C077FF4B2AE11E70E4B244AC9
:109F00001B780321062B11607FF4A9AE0F4B1B6851
:109F10001D077FF4A4AEFCE61E4A0749D368097802
:109F200023F080730629D3607FF499AE074B1B683A
:109F30001A077FF494AEDBE6E00F00F0300100106A
:109F400000ED00E0103000200090D003E40F00F09E
:109F5000E80F00F0340100103C17004058020010D8
:109F6000E40E0040440200103C05004024030010B1
:109F70004035014074C007400DF0ADBA00C000404C
:109F800010560040885600401856004014560040B5
:109F9000A0050040F0ED00E0184A0123C2F80435A6
:109FA000D2F80034002BFBD04FF010231521134AB8
:109FB000C3F80012D2F80034002BFBD04FF010236E
:109FC00015210E4AC3F80412D2F80034002BFBD03E
:109FD00000230A49C2F80435D1F80034002BFBD025
:109FE000BFF34F8F0649074BCA6802F4E062134380
:109FF000CB60BFF34F8F00BFFDE700BF00E0014023
:10A0000000ED00E00400FA0510B568B90E4CA36835
:10A01000012262703BB1D3E900230020A26098477F
:10A02000A368002BF7D110BD0128FCD1064C236991
:10A03000A070002BF7D0D3E90023012022619847BC
:10A040002369002BF7D110BD6838002070B910B516
:10A05000074CA368012262703BB1D3E900230020C2
:10A06000A2609847A368002BF7D110BD704700BFCE
:10A070006838002030B5012883B004D003281DD0F3
:10A08000B0B103B030BD224C00230DF107008DF8B4
:10A090000730FDF71BFB23784BB3E3689DF80700FF
:10A0A00001330122E360A270FDF736FB03B030BD3F
:10A0B000184B0122C3F8802003B030BD144C00F0CF
:10A0C00039F800230DF107008DF80730FDF7FEFA8F
:10A0D000E368013BE360E5682DB19DF80700FDF7FB
:10A0E0001BFB03B030BD00F037F8A570F5E70A4858
:10A0F0006360A3602361E36000F010F804F0EAFB02
:10A1000010B101232370C8E700F014F8F9E700BF8D
:10A110006838002000E100E009A00200044A137939
:10A1200023B901211060918018467047852070473F
:10A130007C380020074B1A68D20704D4C0210122C2
:10A1400083F800131A604FF080430122C3F81825EA
:10A15000704700BF00E100E0044B01221A604FF09D
:10A160008042D2F81834DB03FBD470470C00004067
:10A1700010B5174B1A6882B062B10021154A1960F8
:10A180001B68507900934FF080410123009CC1F877
:10A19000083398B1104B1A68BAB100221A601B68D4
:10A1A00001934FF0804202210A4B0198C2F8081334
:10A1B0001B68012002B0BDE81040184711685371B8
:10A1C0008847054B1A68002AE7D102B010BD00BFCE
:10A1D000000100407C380020040100402DE9F041DE
:10A1E00086B0C04A002301931168012900F0C8819C
:10A1F0001E46BD4B1A68012A00F0B481BB4B1A6899
:10A20000012A00F0A181BA4B1A68012A00F08E8160
:10A21000B84B1A68012A00F07B81B74B1A68012AF3
:10A2200000F05281B54B1A68012A00F03F81B44B0F
:10A230001A68012A08D0B34B1A68012A00F0AC81D1
:10A24000F6B906B0BDE8F081AF4AD2F80423120691
:10A25000F1D500221A6019680491196E0498012939
:10A2600003F1600346F080060AD11A601B6805936B
:10A270004FF0A043059AD3F81035019346F00046FD
:10A28000A24F00240125A30003F180432E4203F5D1
:10A29000C0434FEA45050BD0D3F8100557F82420EA
:10A2A000D3F81015C0F30420C1F3014102B1904767
:10A2B0000134082CE7D1002EC3DA00224FF0FF331F
:10A2C000CDE90223914C012502AE94F95000471CC0
:10A2D00037D0C0F3C20C06AB03EB0C0700F007034A
:10A2E00017F80C2C05FA03F31A42C1B200F03F0034
:10A2F00027D02218890992F9302054F82280B8F129
:10A30000000F00F09D81032900F09D81820002F181
:10A31000A04217F8147CD2F800C71F40CCF3014CC0
:10A320000BD0BCF1020F0CD1032900F0BF81002734
:10A33000B8F1000F06D0C04704E0BCF1030F00F0F5
:10A34000A381002794F95100411C32D0C0F3C20E02
:10A3500006AB03EB0E0C00F007031CF80C2C05FAFF
:10A3600003F31A42C1B200F03F0022D0221889093B
:10A3700092F9302054F82280B8F1000F00F07B8170
:10A38000032900F07B81820002F1A04E1CF814CC5E
:10A39000DEF800271CEA030FC2F3014200F03A8105
:10A3A000022A06D1032900F08481B8F1000F00D001
:10A3B000C04794F95200421C32D0C0F3C20E06AB23
:10A3C00003EB0E0C00F007031CF80C2C05FA03F34A
:10A3D0001A42C1B200F03F0022D02218890992F936
:10A3E000302054F82280B8F1000F00F03B8103299F
:10A3F00000F03B81820002F1A04E1CF814CCDEF884
:10A4000000271CEA030FC2F3014200F0ED80022A8C
:10A4100006D1032900F05081B8F1000F00D0C047E9
:10A4200094F95300431C32D0C0F3C20E06AB03EBC9
:10A430000E0C00F007021CF80C3C05FA02F2134265
:10A44000C1B200F03F0022D02318890993F93030BF
:10A4500054F82380B8F1000F00F0FB80032900F0CE
:10A46000FB80830003F1A04E1CF814CCDEF800370B
:10A470001CEA020FC3F3014300F09C80022B06D1BB
:10A48000032900F01C81B8F1000F00D0C047002F55
:10A490003FF4D7AE4FF0A043019AD3F810359A425B
:10A4A0003FF4CFAE029A019303920EE7164AD2F818
:10A4B000042351067FF5BBAE00221A601B6804938B
:10A4C000049B46F04006B2E60F4AD2F804239006F9
:10A4D0007FF5A8AE00221A601B680493049B46F027
:10A4E00020069FE6006100400461004008610040D2
:10A4F0000C61004010610040146100401861004090
:10A500001C6100407C6100400060004088380020F1
:10A510006C4AD2F80423D4067FF57FAE00221A607D
:10A520001B680493049B46F0100676E6654AD2F851
:10A53000042315077FF56CAE00221A601B68049394
:10A54000049B46F0080663E65E4AD2F804235707E8
:10A550007FF559AE00221A601B680493049B46F0F5
:10A56000040650E6574AD2F8042392077FF546AE18
:10A5700000221A601B680493049B46F002063DE625
:10A580005049D1F8046316F001063FF432AE13606F
:10A5900013680493049B2CE600221A601B68059341
:10A5A0004FF0A043059AD3F810350193002E3FF4E5
:10A5B00084AE63E6032B7FF46AAF03297FF463AFB5
:10A5C0004FF40032DEF8003723F44033CEF8003782
:10A5D000DEF800371343CEF80037B8F1000F3FF430
:10A5E00059AF0137FFB251E7032A7FF419AF0329AE
:10A5F0007FF412AF4FF40032DEF8003723F440331B
:10A60000CEF80037DEF8003701371343FFB2CEF83B
:10A61000003701E7032A7FF4CCAE03297FF4C5AEEF
:10A620004FF40032DEF8003723F44033CEF8003721
:10A63000DEF8003701371343FFB2CEF80037B4E637
:10A6400003297FF47EAE16F80C201A4306F80C207E
:10A650005CE603297FF41BAF16F80E30134306F8AF
:10A660000E30FEE603297FF4DBAE16F80E201A4307
:10A6700006F80E20BEE603297FF49BAE16F80E20E6
:10A680001A4306F80E207EE603297FF451AE4FF4FC
:10A690000037D2F8003723F44033C2F80037D2F83D
:10A6A00000373B43C2F80037012741E64FF44037FB
:10A6B000EFE74FF44032B5E74FF440329CE74FF4F8
:10A6C00040327FE700600040014B1B68184700BF25
:10A6D000E43800200A7B0346032A11D8DFE802F0A1
:10A6E000121E24028868194A904228D0886840F2D5
:10A6F0000222904204D14969D3F84C25914206D1F7
:10A70000012070470969D3F84C259142F8D0002008
:10A710000622C3F80005C3F8002570470969D3F87D
:10A720003C259142F3D1EBE7D3F84C2508699042E0
:10A73000EDD14969D3F83C259142E8D1E0E7D3F85F
:10A740004C2508699042E2D1D0E700BF0002040026
:10A750002DE9F041624BD3F824218CB052B1002294
:10A76000C3F82421D3F824210592059AD3F80421B3
:10A77000002A6FD05A4C5B4DD4F80431002B3FD0E7
:10A780004FF0000CC4F804C105F10C070FCF07AE61
:10A79000D4F80481D7F800E095F82E70CDF8108039
:10A7A0000FC6049BC6F800E0002F77D0C4F860C144
:10A7B000D4F860310293029BC4F85CC1D4F85C31D8
:10A7C0000393039B95F83020454B47480021C3F87D
:10A7D0000012A960C3F808034149D1F8C434C1F894
:10A7E000C434990727D501238DF818300AB985F8A4
:10A7F0002F20D5E9003106A898470CB0BDE8F081BC
:10A80000C4F84831D4F848212B7B0192019A002BDF
:10A8100031D105F10C070FCF07AE0FC695F83020E8
:10A820003B683360002AD7D12F4BC4F80022AA60BE
:10A83000C4F80833D0E713F0050F03D002238DF8D6
:10A840001830D3E795F82E30002B45D004238DF82F
:10A850001830CBE7234A02219068C3F808039160BF
:10A860009168C3F80413012182F82E10196259610E
:10A870000CB0BDE8F0811C4B4FF4007140F2022295
:10A88000C4F80012AA60C4F80833AB68C4F80433F3
:10A890000123A36023620CB0BDE8F0812946204665
:10A8A000FFF718FF80F00100C0B285F82E00C4F851
:10A8B0006071D4F860310293029BC4F85C71D4F8E3
:10A8C0005C3195F830200393039B002A3FF47CAF62
:10A8D000002881D0024677E78DF8183086E700BF60
:10A8E00000300040EC38002002029C014FF0402272
:10A8F000D2F81831E3B10021124BC2F81811D2F886
:10A900001811DA7F82B0FF2A0191019908D0997F4E
:10A9100079B101214FF0A04001FA02F2C0F80C25F4
:10A9200000225A771A72D3E90021074802B0104773
:10A93000704701214FF0A04001FA02F2C0F808254B
:10A94000EEE700BF20390020283900202DE9F04132
:10A95000644B1A6888B002BB634F97F82E30002B07
:10A9600029D1624B1A685AB100221A601B680393FE
:10A9700002218DF814103B6803993A7405A8984792
:10A980005B4B1C68002C30D000221A601B680593BA
:10A99000059B3A7408B0BDE8F081534F00221A605D
:10A9A000196897F82E3000910099002B4ED097F837
:10A9B0002F30002B63D14F4B1A68002AD1D00021D1
:10A9C0001960186897F82D207B8B019093420198AD
:10A9D00094B263D874D0434B474A002119601B6876
:10A9E0000293012302991360BBE77E69002ED1D048
:10A9F0004FF000480125B6FA86F101F146039B00AD
:10AA000003F1804202F5E042A3F58C73D2F800E036
:10AA100083F0040028FA01F1C0F3800CDB0805A8DC
:10AA200026EA0106BEF1000F0BD0146012680492F2
:10AA30008DF818308DF814503B688DF819C0049AC1
:10AA40009847002ED7D108B0BDE8F081FA68786841
:10AA500039898DF814300690ADF81C10002A2CD0DE
:10AA60002648398B7A600122FB6079833981026044
:10AA70003B6805A89847002387F82F306DE7FB68EF
:10AA8000786839898DF814200690ADF81C10A3B1B0
:10AA9000398B7B60FA6079833981E9E73989786895
:10AAA0001B1B9BB289B2154C7B83C91A00EB410179
:10AAB000C4F82C16C4F830268DE700233B74D7E782
:10AAC000FB684BB10D487983012187F82F10C0F83E
:10AAD0002C36C0F830267EE701227B8387F82F20B2
:10AAE00079E700BF04710040443900201071004034
:10AAF000147100400071004004700040007000407C
:10AB000030B9012A06D0012912D0022907D051B14B
:10AB10000720704701290AD002290246F7D1064BC7
:10AB200000205A707047044B08469A7070470E22F6
:10AB3000014B00201A7070477439002010B503884B
:10AB4000102B07D0112B04D1254B18680138186041
:10AB500030B110BD224C216811B30131216010BD0C
:10AB600001220221FFF7CCFF40B1072806D01D4B80
:10AB70001B68002BEDD0BDE81040184707220221CA
:10AB80000120FFF7BDFF08B10728F0D100210846DA
:10AB90000A22FFF7B5FF0028DBD00728E7D1D8E766
:10ABA00001220846FFF7ACFF38B1072805D00D4B4E
:10ABB0001B6803B198472168CFE7072202210120D3
:10ABC000FFF79EFF08B10728F1D1042202210020DF
:10ABD000FFF796FF0028EED00728E8D1EBE700BF8B
:10ABE0007C390020783900202DE9F04FDFF8B09152
:10ABF00000EB400509EBC50583B0EE6A012E074660
:10AC00008A4690464FEA400407D0022E4FD056B3F2
:10AC10000026304603B0BDE8F08FAE6AD5F824B008
:10AC20005E457DD9013EA6EB0B062D6A464528BF41
:10AC30004646A5EB0B0296427ED27B1C03EB4303F8
:10AC400009EBC303324658685146584404F018FBD8
:10AC5000274409EBC70906EB0B023046C9F824204C
:10AC600003B0BDE8F08FAB6AD5F824B05B459CBF5C
:10AC70002A6A9B18013BA3EB0B039845C9D80444EF
:10AC800009EBC4040137256AA5EB0B0607EB470760
:10AC9000B04509EBC7096FD2D9F8040042465844C1
:10ACA00004F0EEFA08EB0B0363624646B1E70137A6
:10ACB00007EB47076C6AFF000026AB6AA34203F16B
:10ACC000FF3222D9131B2A6A434509EB0701A2EB85
:10ACD000040B28BF43469B45486828BF9B46204439
:10ACE00051465A4604F0CCFA2B6A5C449C425E44BE
:10ACF000A8EB0B08DA440DD06C62B8F1000F88D0D5
:10AD0000AB6AA34203F1FF32DCD82A6A1344013B49
:10AD10001B1BD9E700246C62B8F1000FCDD178E796
:10AD20002D6A2E44013EA6EB0B06464528BF46463B
:10AD3000A5EB0B02964280D307F1010808EB480807
:10AD400009EBC8085146D8F804000192584404F0B1
:10AD500097FA751B019AD8F804005D440AEB0201CA
:10AD60002A4604F08DFA274409EBC7093046C9F892
:10AD7000245003B0BDE8F08FD9F804005844C34410
:10AD80003246ABEB050504F07BFA0AEB0601D9F875
:10AD900004002A4604F074FA4646656239E700BFAB
:10ADA000203C0020A0DF7047A1DF7047ADDF704777
:10ADB000B3DF7047B4DF704730B583B00446042278
:10ADC0000021684604F06AFA0C4B1B6801930125C8
:10ADD00042F6A6236946204601AAADF800308DF858
:10ADE0000250FFF7DFFF08B103B030BD044B2A4625
:10ADF0001978204601F00EFB03B030BD98290300FE
:10AE00008439002070B5012186B006463648FDF72A
:10AE1000F7FEBFF35F8F08B106B070BD0446304641
:10AE200000F0C0FC8628054622D00FD8C8B11128F2
:10AE30003ED12E4B30461978012201F0EBFABFF3D8
:10AE40005F8F294B00221A6006B070BD43F20203E7
:10AE500098422DD1254B22461978304601F0DAFA76
:10AE6000EDE7224B02461978304601F0D3FAD3E7DA
:10AE70001F4B204820490194C01AC008000440F02C
:10AE8000020006233246CDE90244CDE90444ADF880
:10AE900006608DF80430FBF719FDBDF8060000F0E0
:10AEA0003DFF034601A8ADF8083002F00FFBD1E7E3
:10AEB0002846FEF7A7FE0F4B104902460C481B1A06
:10AEC000DB081B0443F001003346FBF7D7FD0024E9
:10AED0000723CDE90144CDE9044430460395ADF89C
:10AEE00006608DF80430DAE78039002088390020C8
:10AEF000C838030080390300E42603001C27030040
:10AF000070B54FF6FF738AB000249842CDE9004433
:10AF1000CDE90244ADF80200049427D0054600F0C4
:10AF2000B1FC112806465DD022D838B30B2834D1A5
:10AF30002D4B2E482E49C01AC00800040F232A4664
:10AF400040F002008DF80030FBF7C0FCBDF80200B5
:10AF500000F0E4FE03466846ADF8043002F0B6FAAD
:10AF60002246244B2846197801F054FA0AB070BDE5
:10AF700043F20203984210D12246F2E70E23BDF8B5
:10AF800002008DF8003000F0C9FE03466846ADF8B7
:10AF9000043002F09BFA3246E3E73046FEF732FE19
:10AFA000124B1549024610481B1ADB081B0443F0DC
:10AFB00001002B46FBF762FD002407232846CDE95C
:10AFC0000544CDE908448DF814300796ADF81650C5
:10AFD00000F0A4FE034605A8ADF8183002F076FA9A
:10AFE0002246BEE70122BCE7C838030080390300CF
:10AFF0005C27030087390020DC2703002DE9F04798
:10B00000DFF8708188B098F80010044601F0E6F986
:10B0100010B108B0BDE8F0870546204600F0A2FC5C
:10B02000112806461CD8112851D8DFE800F0395005
:10B030005050505032506C50505050505050500959
:10B040000127484B3A461978204601F0E3F998F871
:10B0500000102A46204601F0DDF908B0BDE8F0876F
:10B0600043F202039842EBD043F2014398422ED1BF
:10B070002046FFF745FF0127E3E701AB314603AA6E
:10B0800020460493FFF792FE18B9BDF80430002B58
:10B09000D7D1204600F042FE00F092FC0027D0E716
:10B0A0000023CDE905331022CDE903332046ADF866
:10B0B0000E4007938DF80C20012500F02FFE03466B
:10B0C00003A8ADF81030012702F000FAB9E73046C6
:10B0D000FEF798FD244B2549024625481B1ADB083C
:10B0E0001B0443F001002346FBF7C8FC00230722A2
:10B0F000CDE90333CDE9063320460596ADF80E4081
:10B100008DF80C20D9E70DF10600FFF751FEBDF8D0
:10B110000630012BBDD90027012602A94FF00209F4
:10B1200042F6021A09E0BDF808305345A5D0BDF833
:10B1300006300136B6B2B342ABD900223046CDE973
:10B140000391FFF737FE42F605230028A1D102A99B
:10B15000002FE8D1BDF80870FF1AB7FA87F77F090A
:10B16000E5E700BF8939002080390300302803005B
:10B17000C83803008A39002070B54FF6FF738AB0D3
:10B1800000249842CDE90044CDE90244ADF8020024
:10B19000049427D0054600F075FB112806465DD0C3
:10B1A00022D838B30B2834D12D4B2E482E49C01A43
:10B1B000C00800040F232A4640F002008DF800303A
:10B1C000FBF784FBBDF8020000F0A8FD03466846CB
:10B1D000ADF8043002F07AF92246244B284619785B
:10B1E00001F018F90AB070BD43F20203984210D181
:10B1F0002246F2E70E23BDF802008DF8003000F081
:10B200008DFD03466846ADF8043002F05FF9324622
:10B21000E3E73046FEF7F6FC124B154902461048AC
:10B220001B1ADB081B0443F001002B46FBF726FC2E
:10B23000002407232846CDE90544CDE908448DF8CC
:10B2400014300796ADF8165000F068FD034605A8C7
:10B25000ADF8183002F03AF92246BEE70122BCE709
:10B26000C8380300803903005C27030087390020B9
:10B27000DC270300037803B1704730B5044683B080
:10B280004088FFF73DFE6588284600F055FBA0B9D1
:10B290006488204600F042FD00236A46092101F03F
:10B2A00071F9052817D00F4B0F491878002201F0CB
:10B2B000D3F8024640B103B030BD0C4B2846197894
:10B2C000012201F0A7F8E3E7094B0A49187801F0D9
:10B2D000C3F803B030BD064B20461978012201F0B7
:10B2E00099F8E0E78839002005AE0200893900208E
:10B2F00085390020B9AD0200F0B50378082B83B082
:10B3000009D0314C20783149002201F0A5F80246DD
:10B3100058B303B0F0BD467A0446002EF1D1057A49
:10B32000072D29D0082D45D0012DEAD180886A4605
:10B33000294601F081FC06460028E2D1019B1B78DA
:10B34000002BDED0A08800F0B9FD4FF6FF739842C5
:10B35000D7D01F4F1C4C39782A4601F05BF838785B
:10B360001C49324601F078F8CCE71B4B1B49187892
:10B3700001F072F803B0F0BD8088134C00F09EFD20
:10B380004FF6FF7398420546BCD02178012201F0A8
:10B3900041F8284600F0C2FC33466A46092101F014
:10B3A000F1F80528AED10C4B28461978012201F09E
:10B3B00031F8A7E70A4B1A68012AA2D1BFF35F8FC1
:10B3C000014C1E609EE700BF8839002005AE0200D8
:10B3D00089390020FDAF020085390020B9AD020097
:10B3E0008039002070B503888588353B86B00446D7
:10B3F0001F2B24D8DFE813F05A00B50023002300E8
:10B400002300230023002300230023002300230024
:10B410002300230023002300230023002300230014
:10B420002300230023002300230023002300E60041
:10B4300023002000230031002846FFF761FD914CD6
:10B44000914B92491878002201F006F82078904933
:10B45000002201F001F806B070BD00261123284635
:10B46000CDE90166CDE903668DF80430ADF80650EC
:10B47000059600F053FCADF8080000F0A1FA854BEA
:10B48000804C19783246284600F0C4FF21783246B5
:10B49000284600F0BFFFBDF8060000F03FFC034661
:10B4A00001A8ADF8083002F011F8C9E77A4E284635
:10B4B000317800F093FF0028C1D00022317828466F
:10B4C00000F0A8FFE288B2F5857F1ED0002A40F088
:10B4D000BD806289012A09D07048714B7149C01A38
:10B4E000C008000440F00200FBF7F0F9A689012E25
:10B4F00000F0B78069486A4B6B49C01AC008000465
:10B50000324640F00200FBF7E1F9684B00240120CD
:10B510001978ADF804000923284622468DF8063034
:10B520008DF80B40CDF8074000F074FF604B2846C3
:10B53000029300F0F3FB002201A901F09FF800281C
:10B540003FF47DAFFEF75EFB544B5A494D4C02462B
:10B5500053481B1ADB081B0443F00200FBF7B6F943
:10B560006EE7554E2846317800F038FF00283FF44A
:10B5700066AF00223178284600F04CFFE288002AAE
:10B5800043D1E689012E4BD04448454B4649C01A69
:10B59000C0080004324640F00200FBF797F9434B25
:10B5A000002219788DF80B200923284601248DF8F4
:10B5B0000630CDF80720ADF8044000F02BFF3C4BDF
:10B5C0002846B5E7037B012B7FF439AF827A012A45
:10B5D0007FF435AF018942F6021399427FF42FAF11
:10B5E000364C2846217800F015FF00222078344997
:10B5F00000F032FF024600287FF421AF2B4B314987
:10B600001878204C00F028FF1AE7254B23482E49D4
:10B61000C01AC008000440F00200FBF757F9BEE76B
:10B62000224B247C1978CDF80720092328468DF871
:10B630000B208DF80630ADF8046000F0EBFE234BD4
:10B640001B4A2846002C08BF134671E7144B1348C9
:10B650001D49C01AC008000440F00200FBF736F98B
:10B6600053E7E18900222846FFF79EFB00287FF47C
:10B670004CAF114B034C19783246284600F0CAFEF5
:10B68000DEE600BF893900208739002079B1020049
:10B69000FDAF02008A390020843900208039030080
:10B6A000C83803000C29030048290300853900200D
:10B6B0009C29030070280300863900208839002067
:10B6C00005AE0200B9AD0200D0280300A029030096
:10B6D000AFDF7047B1DF7047B2DF7047B3DF70474D
:10B6E000F0B5254B254D93E803002B8889B04FF624
:10B6F000FF7601AFB34287E8030007D137E028881F
:10B7000001F03CF8B0420346288030D018460022B1
:10B71000394600F0B3FF04460028F0D000232A8801
:10B7200007931128CDE90333CDE90533ADF8102097
:10B730001DD086281DD0FEF765FA114E2B881149C1
:10B7400002461148351AED082D0445F00100FBF7BB
:10B7500095F9BDF81000059407238DF80C3000F022
:10B76000ADFB034603A8ADF80E3001F0C3FE09B0EF
:10B77000F0BD10460623F0E7542B03008C3900205F
:10B7800088390300A4290300C8380300044B1A8831
:10B790004FF6FF739A4200D17047FFF7A1BF00BF79
:10B7A0008C3900202DE9F04782B0074600F0B6FA48
:10B7B0004FF6FF73984258D02F4A304BDFF8C0A0A5
:10B7C000A3EB02094FEAD9094FEA0949064649F0B5
:10B7D000010901224FF003086B4608213046551C31
:10B7E00001F02EFA0446ADB20323384674BB019A29
:10B7F000911D42F8048BFFF76FFF03460821304686
:10B800005BB30C2B04D101F013FBA8B92A46E3E784
:10B810000821052B18BF1C4601F00AFB40B1FEF7BA
:10B82000F1F91749034632464846FBF727F9032446
:10B83000204602B0BDE8F087FEF7E4F93246034641
:10B8400051464846FBF71AF92A46C5E7072C08BFB8
:10B850000C24204602B0BDE8F087324601F052FBCE
:10B860000446204602B0BDE8F08743F202042046B9
:10B8700002B0BDE8F08700BFC83803008839030074
:10B88000FC2903002DE9F04383B0074600F046FA97
:10B890004FF6FF73984230D14FF00008464603251B
:10B8A0004FF001092B46424631463846FFF712FF5A
:10B8B000042804460BD008280BD00B280BD0B9F174
:10B8C000000F08BF0B24204603B0BDE8F08311240D
:10B8D000F5E70024F3E715F0020504D13EB1A846D0
:10B8E0002E46032500E001254FF00009DAE7B8F104
:10B8F000000F0ED0B0460325F6E76A46082101F096
:10B900009BF90028C8D1019EB6F804803568063638
:10B91000C6E7064B06480749C01AC00800043A4665
:10B9200040F00100FAF7D2FFCDE700BFC8380300AE
:10B93000883903007C2A030000B585B00DF10703A8
:10B94000039300F0EBF902AA012101F075F920B987
:10B95000039B187805B05DF804FB002005B05DF886
:10B9600004FB00BF70B5124E04463046FFF7B6FE2A
:10B9700078B9318843F203054FF6FF722046FFF78E
:10B98000A7FEA84200D070BD3188013189B2318054
:10B99000F2E7FEF737F9074B0749024607481B1A3B
:10B9A000DB081B0443F00100FAF790FF032070BD91
:10B9B0008E39002088390300F42A0300C8380300B8
:10B9C00010B5074B044693E8030082B06B4683E84A
:10B9D000030000221946204600F050FE02B010BDC0
:10B9E0005C2B030046DF70470388102B40F0C680B5
:10B9F00070B5041D0FCC9EB007AD0FC50FCC0FC5A1
:10BA000094E807009DF8203003F0FE03062B85E83C
:10BA1000070014D1BDF81C30684A0898BDF82440CE
:10BA20009DF8261003EB83035B004FF6FF75D5529C
:10BA30001344C3F80200DC8019721EB070BD00F020
:10BA4000E9FD9DF82030032B4FEA530240F2978026
:10BA5000022ADFD105AE0DF1060532462946072040
:10BA600000F0E0FD0028D5D09DF8203003F0FE0363
:10BA7000042BF2D1069C03220DF1210102A803F050
:10BA8000FFFB032209A904A803F0FAFB237C8DF82D
:10BA90004830E37B8DF84930A37B8DF84A30637BD7
:10BAA0008DF84B30237B8DF84C30E37A8DF84D3098
:10BAB000A37A8DF84E30637A8DF84F30237A8DF863
:10BAC0005030E3798DF85130A3798DF85230637995
:10BAD0008DF8533023798DF85430E3788DF8553054
